:020000041000EA
:1000000000B5324B212058609868022188439860DF
:10001000D860186158612E4B002199600221596106
:100020000121F02299502B49196001219960352056
:1000300000F044F80222904214D00621196600F024
:1000400034F8196E01211966002018661A6600F04E
:100050002CF8196E196E196E052000F02FF8012189
:100060000842F9D1002199601B49196000215960AB
:100070001A491B48016001219960EB211966A021F2
:10008000196600F012F800219960164914480160C1
:100090000121996001BC002800D000471248134993
:1000A000086003C880F30888084703B5996A0420EC
:1000B0000142FBD001200142F8D103BD02B5186610
:1000C0001866FFF7F2FF186E186E02BD00000240BE
:1000D000000000180000070000035F00212200005C
:1000E000F4000018222000A00001001008ED00E03C
:1000F00000000000000000000000000074B24E7A12
:1001000000200420F7010010C3010010C5010010F9
:10011000C1010010C1010010C1010010C101001097
:10012000C1010010C1010010C1010010C701001081
:10013000C1010010C1010010C9010010CB01001065
:10014000CD010010CD010010CD010010CD01001037
:10015000CD010010CD010010CD010010CD01001027
:10016000CD010010CD010010CD010010CD01001017
:10017000CD010010CD010010CD010010CD01001007
:10018000CD010010CD010010CD010010CD010010F7
:10019000CD010010CD010010CD010010CD010010E7
:1001A000CD010010CD010010CD010010CD010010D7
:1001B000CD010010CD010010CD010010CD010010C7
:1001C00000BE00BE00BE00BE00BE00BE00F04BF888
:1001D000103800BEF2EB887100580010245800104F
:1001E0003402001090A31AE700202149086006C8D5
:1001F00081F3088810471F48006800282FD10DA4FC
:100200000ECC002902D000F012F8F9E71A491B4A77
:10021000002000E001C19142FCD1194988471949E9
:1002200088471949884700BEFDE701C901C29A42C3
:10023000FBD3704724580010C0000020B40A0020EF
:100240001862001000000420000004201862001052
:1002500000100420001004200000000070470B482C
:1002600002F048FE0047EFF30580C0B2704700007F
:1002700008ED00E0000000D0B40A00207C0D002052
:10028000311500105D03001039160010575600009C
:1002900006005250ABB360539857001006005250FE
:1002A000861C0302A8570010060052505422A29D3B
:1002B000B057001005005250DE65F4681862001057
:1002C000F8B5C0460448054B10B5834203D0044B33
:1002D000002B00D0984710BDB40A0020B40A0020BB
:1002E0000000000006480749091A8910CB0F591869
:1002F00010B5491003D0044B002B00D0984710BD17
:10030000B40A0020B40A00200000000010B5074C19
:100310002378002B09D1FFF7D5FF054B002B02D026
:10032000044800E000BF0123237010BDB40A002080
:1003300000000000F04A0010054B10B5002B03D060
:100340000449054800E000BFFFF7CCFF10BDC046E0
:1003500000000000B80A0020F04A001070B503F059
:1003600087FE192000F034F8D0231B068022920467
:100370005A620A4803F070FE084803F06DFED0256B
:100380002D068026B6046E61FA246400200000F079
:100390003DFDAE61200000F039FDEDE7F04A0010B0
:1003A00010B58300084A944663441C6840226240AA
:1003B000C02414408022520113431C60C000034B30
:1003C0009C466044416010BD04C0014000400140B3
:1003D00010B501238340D022120693629361052158
:1003E000FFF7DEFF10BD0000EFF3108072B6034B85
:1003F0001B68002BFBD0BFF35F8F70472C0100D030
:10040000BFF35F8F024B00221A6080F310887047A1
:100410002C0100D070B504000E001500FFF7E4FFBA
:10042000F308E3181978072232400C00D440E4079F
:1004300006D40124944021431970FFF7E1FF70BDF9
:100440003100280001F01AF9002307E0054A9A1844
:100450009200BFF35F8F0021116001331F2BF5D98C
:100460007047C04640000034054A1078431CDBB298
:100470001370172B02D9130010221A707047C04650
:10048000D0010020034B1B6802201840431E9841F6
:10049000C0B2704700C0064070B505000C000620D1
:1004A00001F00CFAC000210002F07CFDC6097F2398
:1004B000184001304008002E08D00D4B9E4202D952
:1004C00000260C4C03E03400060000E001246C62BE
:1004D000AE622C3580239B011D4300232B60062038
:1004E00001F0ECF98000A101891902F05BFD70BDFB
:1004F000FEFF0000FFFF000000290AD18022520009
:10050000054B9C466044434258414000034BC25255
:1005100070470A22F4E7C0460080FCBF700B002041
:1005200070B505000C00062001F0C8F900282DD098
:10053000174B9D4227D08022D203164B1A60164BD0
:100540001A60164B9B6811009943FAD100212800CC
:10055000FFF7D2FF21002800FFF79EFF2C002C346C
:10056000E96A60224A406E211140802252012243F2
:1005700011600B4B2B6380239B01234310221A60D5
:100580000323AB6470BD80221204D6E70020F9E794
:100590000080034000E0004000F0004000C0004048
:1005A0000103000040BF00200021704710B5002962
:1005B00022D003681B7B99421ED8174B9C4661448E
:1005C000090183689C4661440C684968002A19D077
:1005D00003681B7B9A4215D883680F48844662449F
:1005E00012019A1810685368020001208B4201D84A
:1005F0000ED00020C0B210BD084B094A3B2109486B
:1006000001F01EF8054B064A3B21064801F018F898
:10061000A242EFD8EDE7C046FFFFFF0F544C001099
:10062000584B0010784C001010B500291FD0037BE8
:1006300099421CD84B005B18033B0468A4466344F2
:1006400000291AD0002A1ED0914222D0002A26D09A
:10065000047BA24223D80468500080180338201875
:1006600081701978002920D041701A7010BD104B8C
:10067000104A4D21104800F0E3FF104B104A53314F
:100680000D4800F0DDFF0F4B0D4A54210A4800F0E1
:10069000D7FF0D4B0A4A5521074800F0D1FF044B04
:1006A000044A4D21044800F0CBFF1A70DEE7C04633
:1006B000D44C0010004B0010F04C0010384D0010CE
:1006C0000C4B0010444D0010504D001070B506004A
:1006D0000D00140000290BD0002A12D08068736826
:1006E0009847002806D12A0021003000FFF79CFF20
:1006F000200070BD220029003000FFF795FF2C007C
:10070000F6E70C00F4E70000F0B583B007000092B4
:1007100001930BAB1E780A9B002B28D00268DBB23A
:10072000517B8B4208D10123002B1AD10A9B002B4D
:100730003AD10A9803B0F0BD002B0CD0117B8B424C
:1007400009D811685A00D318033BCB189B78002BAB
:10075000EAD00123E8E73F4B3F4A4D213F4800F0F4
:100760006FFF3F4B3F4A51213F4800F069FF03684C
:100770009C7B002C01D10A94D8E7002C0ED01A7B68
:1007800094420BD862001219033A19688C466244ED
:1007900052789A73002AEED1DA73ECE72D4B2E4A89
:1007A0004D212E4800F04CFFDDB2002D3BD03B68C0
:1007B0001B7B9D4237D82D4BEB181B01BA68944622
:1007C00063440099019A19605A60089A9A60099ADC
:1007D000DA603C68002D2CD031D0237B9D422ED88E
:1007E0006B005B19033B22689446634400229A70B5
:1007F0005A701A70617B2A002000FFF767FF607350
:100800000A9B984200D094E7387D009A019B00F043
:10081000C1FB041E01D0002E17D00C9B002B00D171
:1008200087E71C7085E7124B124A3B210E4800F007
:1008300007FF114B114A7721084800F001FF054BD3
:10084000054A4D21054800F0FBFE3868290000F0FC
:10085000F3FDE2E7D44C0010004B0010F04C001008
:10086000AC4B0010784B0010784C0010FFFFFF0FCE
:10087000544C0010584B0010D04B0010204B00106F
:10088000F0B5D6464F464646C0B58CB00B908200B8
:10089000A74BD65896E0A74BA74A3B21A74800F0A4
:1008A000CFFE002B02D1002A00D0B1E001212800A8
:1008B00000F0B8FDA04217D13A687B68089209930E
:1008C000BD68FB689846002D14D0002C18D0336802
:1008D0001B7B9C4214D8631EF268D35C9A461B02B1
:1008E0001843306100209BE0954B964A782193484D
:1008F00000F0A6FE944B934A7C21904800F0A0FEA5
:100900008C4B924A40218D4800F09AFE0023984675
:100910000025002084E03369002B00D19FE04B4587
:100920001CD1089A099B08929C4606980799121AAE
:100930008B419C4503D805D10899914202D90122E7
:100940005242D31700210491013103910294414690
:10095000019100953000FFF7D7FE2BE07C4B794AE0
:100960008B21764800F06CFE069A079B002B01D184
:10097000002A78D13368002C00D1B1E05A7B944230
:1009800000D096E00122002A00D0A9E0DA7B002AFC
:1009900000D0ABE0DC73002C00D1BAE033681B7BE5
:1009A0009C4200D9B5E0013CF3689C46644423783E
:1009B00001332370002333617268BFF35F8F1360CC
:1009C00087F3108800F07EFA00230024089309942E
:1009D0007268EFF3108972B61368002BFCD0BFF376
:1009E0005F8F35686C7B002C90D000D153E72B7B58
:1009F0009C4200D94FE7574BE7183F01B3689C462C
:100A000067443A687B68121A8B41002B00DC48E788
:100A10003A687B680B9800F0BDFA002398460025E1
:100A20007368BFF35F8F00221A6089F31088002D6E
:100A300075D053461B022343994641461800A847E8
:100A4000069007917268EFF3108772B61368002B57
:100A5000FCD0BFF35F8F079B002B00DA5BE7079B9F
:100A6000002B00DC80E73369002B00D182E74B4587
:100A700019D100F027FA069A079B12184B419942A8
:100A800002D804D1904202D901225242D317002148
:100A90000491013103910294414601910095300087
:100AA000FFF732FE86E72A4B264A8E21234800F0C4
:100AB000C7FD002C0ED01A7B94420BD8620012198D
:100AC000033A19688C4662449278002A00D15AE7AA
:100AD000012258E7204B214A4D21214800F0B0FD6A
:100AE000204B214A8F211E4800F0AAFD002A0AD07F
:100AF000197B8A4207D851008A18033A19688C4634
:100B00006244547046E7144B144A4D21144800F0D7
:100B100097FD084B0D4A4021084800F091FD002840
:100B200000D04FE70CB01CBC90469946A246F0BDE1
:100B30004C0B0020544C0010584B0010784C001007
:100B4000D44B0010904B0010EC4B0010644B001085
:100B5000F84B0010FFFFFF0FD44C0010004B0010AB
:100B6000F04C0010344C00102C4B001010B5054B0D
:100B70001868002800D010BD034B044A35210448F2
:100B800000F05EFD3C0B0020C04C0010404B0010FC
:100B9000784C001070B505000E0000F087F92800B1
:100BA00000F060FA1249280000F0ACF9182003F0B8
:100BB0000FF90400FFF758FC0E4B9C466044800080
:100BC000606022000C49300000F03CFB20601021E6
:100BD000300003F001F9A0600121300003F0FCF8BF
:100BE000E0602575AD00054BEC50200070BDC0469F
:100BF0008108001040000034AD0500104C0B0020AF
:100C000010B5064B1B68002B00D010BD102103202F
:100C1000FFF7C0FF014B1860F7E7C0463C0B002010
:100C2000F0B5C64600B58AB0060006920793109F3D
:100C300012AB1B7898461F2302AA944663440022F5
:100C40001A7016E0002B07D03168097B8B4203D85D
:100C5000591EF068405C2AE0384B394A4021394837
:100C600000F0EEFC002036E001246442E517069413
:100C700007957268EFF3108472B61368002BFCD0EE
:100C8000BFF35F8F1F2302AA94466344049300239B
:100C900003930293119B01930097069A079B3000E0
:100CA000FFF732FD0200C3B2002BCBD100207168E8
:100CB000BFF35F8F00250D6084F31088002B37D0C1
:100CC0001F2302A98C4663441B78002BCAD1010262
:100CD000FF2010400843002B2CD04346002B29D086
:100CE0001199B84704000D0003000B431ED00029E2
:100CF0000DDA0698079902000B00001BA9410400B9
:100D00000D008B42B0D8B2D18242B0D9ACE700F02E
:100D1000D9F824184D41A94202D804D1A04202D9E1
:100D200001246442E51706940795A2E7002001E03C
:100D3000012040420AB004BC9046F0BD544C001063
:100D4000644B0010784C0010F0B587B006000F001F
:100D500006246442E517A4197D418D4202D803D1CF
:100D6000844201D9002400250494059500F0AAF8D6
:100D7000241A8D41002D12DDFFF7F8FE00230293A7
:100D80000193144B0093049A059BFFF749FF002839
:100D900010DA3000390000F0A1F807B0F0BD002DE6
:100DA000F7D1002CE8D1F4E7002300E00023002B6A
:100DB000EFD120BF0499059A074B5B6A9A42F5D898
:100DC0000548806A884203D29A42EDD00123EEE7BB
:100DD0000123ECE7A50500100040054070B50400B4
:100DE0000D0000F06FF802000B00200029008018B1
:100DF00059418B4205D901204042C117FFF7A4FF9A
:100E000070BD8B42FAD18242F5D8F7E710B5FA22CD
:100E100092000023002102F029FFFFF7DFFF10BD41
:100E200070B5EFF305833F2018401038EFF31084BE
:100E300072B6194B1B68002BFBD0BFF35F8F0123E9
:100E400019008140154A5163154A12781500C540B2
:100E50002B4214D0114B5D6A8300124E9B599D4268
:100E600006D38300104D5B598A430D490A7007E091
:100E70000A4A031D9B0099589950002300E0002363
:100E8000BFF35F8F044A0021116084F31088002BA8
:100E900000D0984770BDC046280100D000400540F2
:100EA0006E0B00205C0B0020040B002010B501002D
:100EB000024A0348FFF7AEFA10BDC046844D001049
:100EC0006C0B0020044B596A00E01900024B986A31
:100ED0005B6A9942F9D1704700400540084B5B6A54
:100EE00001E0074B5B6A8B42FBD301E0044B5B6A7A
:100EF0008B4203D1024B9B6A8342F7D37047C046B3
:100F00000040054070B504000D00EFF3108672B686
:100F10001B4B1B68002BFBD0BFF35F8F002D1CD039
:100F2000200000F0C9FD174B98420BD0190020009B
:100F300000F0CAFD0121200000F0B6FD0123A3400E
:100F4000114A1360A400114BE550BFF35F8F0C4BA7
:100F500000221A6086F3108870BDA2000B4B00219E
:100F6000D1500122A2400A490B7893430B700549E6
:100F7000200000F0D3FD0021200000F095FDE4E703
:100F8000280100D0210E001038600540040B00201D
:100F90006E0B0020F0B5DE4600B584B006001400EC
:100FA00001921D000293FFF78DFF03948D422BD910
:100FB000EFF3108B72B6244B1B68002BFBD0BFF3F2
:100FC0005F8F0124B440214A5463E7B220490B7873
:100FD0003B430B70331D9B0001999950B3001D4991
:100FE00002985850136A23421AD1136C234211D02D
:100FF0000020BFF35F8F144B00221A608BF3108820
:1010000004B004BC9346F0BD8D4201D18442CFD8D8
:101010000120F5E7104B114AB221114800F010FBF6
:10102000FFF750FF8D420CD802D1039B834208D8B2
:10103000064B1C625C63064A1378BB4313700120A5
:10104000D7E70020D5E7C046280100D00040054082
:101050006E0B00205C0B0020A84D0010684D0010A6
:10106000CC4D001010B5EFF3108472B60A4B1B681C
:10107000002BFBD0BFF35F8F01238340074A13622D
:1010800007490A789A430A70BFF35F8F024B002228
:101090001A6084F3108810BD280100D0004005407C
:1010A0006E0B002010B51F2905D8064B9C466144E5
:1010B0008900016010BD044B044A0A21044800F075
:1010C000BFFAC04640000034184E00100C4E00100D
:1010D000444E001010B50400FFF7C6F901002000CF
:1010E000FFF7E0FFFF232371BFF35F8F10BD000008
:1010F00010B500291FD0037B99421CD84B005B1808
:10110000033B0468A446634400291AD0002A1ED079
:10111000914222D0002A26D0047BA24223D8046820
:10112000500080180338201881701978002920D0C9
:1011300041701A7010BD104B104A4D21104800F03C
:101140007FFA104B104A53310D4800F079FA0F4BDB
:101150000D4A54210A4800F073FA0D4B0A4A5521F2
:10116000074800F06DFA044B044A4D21044800F092
:1011700067FA1A70DEE7C046D44C0010004F00102A
:10118000F04C0010384D00100C4F0010444D001072
:10119000504D001070B506000D00140000290BD052
:1011A000002A12D0806873689847002806D12A0068
:1011B00021003000FFF79CFF200070BD22002900B5
:1011C0003000FFF795FF2C00F6E70C00F4E7000075
:1011D00010B50023437301338373037BC373012171
:1011E000037B8B4215D9CBB2002B0CD0027B9342F0
:1011F00009D85A00D218033A0468A446624401335D
:1012000053700131ECE70C4B0C4A4D210C4800F0B7
:1012100017FA002B09D09B4207D801685A00D3184F
:10122000033BCB1800225A7010BD034B034A4D21DB
:10123000034800F005FAC046D44C0010004F0010DF
:10124000F04C0010F8B505000F0016001021012029
:1012500002F0C2FD0400057347600321280002F07C
:10126000BBFD2060A6602000FFF7B2FF2000F8BDA4
:1012700070B50400002901D1080070BD002934D0E8
:10128000037B994231D84B005B18033B02689446BC
:1012900063445A78002AEFD02DD0037B9A422AD893
:1012A00053009B18033B0068844663445D7800202C
:1012B0005870002925D0237B994222D84B005B1817
:1012C000033B206884466344002058702000FFF7E9
:1012D00061FF060029002000FFF7CAFF020031006D
:1012E0002000FFF757FF0100C6E7094B094A4D21CF
:1012F000094800F0A5F9064B064A4D21064800F0C2
:101300009FF9034B034A4D21034800F099F9C04669
:10131000D44C0010004F0010F04C001070B50500C8
:101320000C001600002928D02DD0037B99422AD822
:101330004B005B18033B0268944663445A78002ACA
:1013400027D19A78002A2AD11978FFF791FF030054
:10135000002E03D1EA7B002A27D1EC73002B37D172
:10136000002C49D02B7B9C4246D82A6863001C196C
:10137000033C14190023637070BD224B224A3321B1
:10138000224800F05DF9224B224A4D21224800F00C
:1013900057F9224B1C4A35211C4800F051F9204BCB
:1013A000194A3621194800F04BF9002A0AD0297B46
:1013B0008A4207D851008A18033A29688C46624449
:1013C0005470CAE7124B134A4D21134800F038F904
:1013D000002B0BD02A7B934208D843001B18033BF9
:1013E0002A689446634400229A70B9E7084B094A78
:1013F0004D21094800F024F9054B064A4D210648C5
:1014000000F01EF9684F0010204F0010704F0010C0
:10141000D44C0010004F0010F04C0010A84F0010EA
:10142000D04F001070B504000A00457B2900FFF77B
:1014300075FF6073280070BD10B50400002966D0E8
:10144000437B8B420ED0002911D0037B99420ED8EA
:101450004B005B18033B0268D0188378002B0CD13B
:10146000002055E00021FFF7DDFF012050E0294B6F
:10147000294A4D21294800F0E3F8002B1FD0227B98
:1014800093421CD85A00D318033B2268D218137811
:101490008B421AD0002B1BD0227B934218D85A00C3
:1014A000D318033B2268D21853788B4216D0002BF6
:1014B000F0D11B4B1B4A63211B4800F0C1F8154BB0
:1014C000154A4D21154800F0BBF84378137007E02A
:1014D000104B114A4D21114800F0B2F84378537077
:1014E00000238370437000222000FFF717FF0200E3
:1014F000617B814205D02000FFF74CFE6073012024
:1015000006E00A4B074A6921074800F099F80020D5
:1015100010BDC046D44C0010004F0010F04C00101D
:10152000404F0010344F0010704F0010484F001013
:1015300070B5234B234A1A60234B244A1A60244B6C
:101540009A68224B9343FAD1224C01E008CC984789
:10155000214B9C42FAD300F01FF91B4B1F4A1A6023
:101560001B4B9B68DB43DB01FAD11D4B40229A6782
:101570005A671A67DA661B4C03E02000FFF7AAFDE2
:101580000834194B9C42F8D3184CA168184DC0225E
:10159000280002F033FCA560EFF30383FF221A4218
:1015A00000D000BEFEF750FF00F024FCFFF728FB40
:1015B000104C01E008CC98470F4B9C42FAD370BD09
:1015C00000E00040BFCDFFFF00F00040FE7F3C0088
:1015D00000C00040A00A0020B00A0020FFFFFF0169
:1015E00000F00140980A0020A00A002000ED00E071
:1015F00000000020B00A0020B40A002000BEFDE771
:1016000003000A4A1268002A08D0084A1068C31862
:10161000074A934206D2054A13607047034A0549B8
:101620001160F2E701204042F7E7C046480B002076
:10163000000004207C0D002010B5FFF7DFFF000044
:1016400010B582B00C001900002A0CD0084B002AFB
:101650000BD00192009323000200064802F0FCFC2C
:101660000120FFF7CBFF044BF1E7034AF1E7C04647
:10167000F44F001004500010005000100FB400B5DB
:1016800083B0084802F0B8FC049B002B07D005A9E2
:101690000191180002F0BEFC034802F0ADFC0120ED
:1016A000FFF7ACFF3450001044500010F8B5D64698
:1016B000474680B5060088461700089A934242D3F1
:1016C000190E1802089A002301F0B2FC05007300FD
:1016D0009B199C002B4B9C4664446368834200D258
:1016E0006060331FDBB29A46012B32D9C0239B01C5
:1016F0002343802212011A60B300234A995800291B
:1017000005D0506901F04EFC01300138FDD17F0158
:1017100023685F40E0231F4080235B0123431F6059
:101720005246012A21D980239B01234380221201A2
:101730001A606560B600144B089AF25001200CBC88
:1017400090469A46F8BD114B114A2E211148FFF7D9
:1017500077FF4346012BC9D1C0239B0123430322BA
:101760001A60A368DB07FCD5D1E7216842465140E7
:1017700003220A401A60A268012341468B401342AB
:10178000F9D0D0E700800040140B00205850001022
:10179000485000106C50001030B583B00C2000F0A1
:1017A00093F8FEF76FFE00280DD0002304E09900A7
:1017B000334A344888500133092BF8D9304B324A28
:1017C0005A6203B030BD314B00229A6700F084F8B2
:1017D0002F4B01221A602D4B5B6C012BFBD12D4B43
:1017E00003221A60294B9B6B012BFBD1C0239B0169
:1017F000294A1360294A1360294B9A68C0239B0128
:101800009343F9D1022400940633264A0121264845
:1018100000F076F800940523244A0121244800F0C2
:101820006FF8244B0093002202210420FFF73EFFB3
:10183000214D00952B00002201210520FFF736FFE6
:10184000104C00942300002200210720FFF72EFFF8
:1018500000942300002200210820FFF727FF0A4BF5
:1018600000932300002200210920FFF71FFF0095AD
:101870002B00002200210620FFF718FFA1E7C04639
:10188000140B0020006CDC021BB70000008000403D
:101890003CB0004030B0004000E0004000F00040AC
:1018A00000C00040002F68590080024000389C1C96
:1018B00000C00240001BB700405973078000014B75
:1018C000C0587047140B002080239B001843014B25
:1018D000D862704700800540064BAA2212011A60A8
:1018E0002F22DA60044B054A1A60024B5B68002B1A
:1018F000FBDA7047004002400060024000B0FA008E
:10190000F0B5CE4600B582B0040015001E0008AB4D
:101910001F7801235B4243600023836001910C2008
:1019200001F040FB8146019921604201121A9301A6
:101930009B1ADB004B449901280001F033FB0200A5
:10194000103A98235B009A421FD8731E062B22D8A8
:101950007B1EDBB2062B1ED8B74222D82D094D457F
:1019600025D3A060231DC02292011A4321231360B6
:101970002368002BFCDA36043B031E43E660082391
:10198000136002B004BC9146F0BD0C4B0C4A1A2106
:101990000C48FFF755FE0C4B094A1D210948FFF77B
:1019A0004FFE0A4B064A23210648FFF749FE084B23
:1019B000034A27210348FFF743FEC046BC500010EE
:1019C000B0500010D8500010145100106051001099
:1019D00078510010074B9B68103080001950BFF3FE
:1019E0005F8FBFF35F8F044B0021196082F3108873
:1019F0007047C04600ED00E0240100D010B5091A80
:101A000004394808090B05D14005400D044B184323
:101A100080B210BD034B044A8D210448FFF710FE2D
:101A200000E0FFFF88530010B051001098530010E1
:101A300010B5091A04394C08090B08D14905490D9C
:101A4000064A11430180064B2343438010BD054BDA
:101A5000054A95210548FFF7F3FDC04600F0FFFF5A
:101A600000F8FFFF88530010BC510010985300107D
:101A700001238340034A10681840431E9841C0B2B6
:101A80007047C04600E100E0002902D1034B186016
:101A90007047034B1860034B1860F9E780E100E0E2
:101AA00080E200E000E100E010B50123834018006F
:101AB000FFF7EAFF10BD0000024B9B68103080006A
:101AC000C058704700ED00E070B504000D00EFF362
:101AD000108672B60C4B1B68002BFBD0BFF35F8FD8
:101AE0002000FFF7E9FF094B984201D0A84205D139
:101AF000320029002000FFF76DFF70BD044B054A3E
:101B000071210548FFF79CFD240100D0CD01001094
:101B1000505300109451001098530010F0B5CE4669
:101B200000B584B001900D00EFF3108672B65C4BE7
:101B30001B68002BFBD0BFF35F8F5A4B9A68019C48
:101B40001034A300D758584B9F4200D1A4E0AF42B5
:101B500000D1A3E00297554BFB1A2F2B08D9320076
:101B600039000198FFF736FF04B004BC9146F0BD80
:101B70000198FFF77DFF039000210198FFF794FF84
:101B8000BFF35F8FFEF76FFB002801D084421FD1A7
:101B90000123029C9C43454AA21A921093009B1871
:101BA00019015B1819025B1819045B185B009C464D
:101BB00094440023A168A94212D00622A256002A0A
:101BC0000DDB53009B189A002300384CA418F1E752
:101BD0008E21374B374A49003748FFF731FD230044
:101BE000A94252D10622A2569146002A38DB520061
:101BF0004A4491002D4B5B189A68A260DA79E27131
:101C000006229A56A2719B795BB2002B12DABD2094
:101C10000002A0804B465B004B449A00234B9B186C
:101C2000264A117899714B46137003990198FFF772
:101C30003BFF94E7201D1D4A8B181A1D9B88D90A6B
:101C40001C2907D159054915023149005118FFF7E0
:101C5000D5FEDEE71A4B1B4A9B211748FFF7F0FC25
:101C600000280DD1002B09D0FF229A71164A9A80C4
:101C7000124B1A78A27162461A70D6E70A4FF7E73C
:101C8000201D1249FFF7D4FECFE75221104B094A1D
:101C9000FF310948FFF7D4FC034F60E7024F5EE7CE
:101CA000240100D000ED00E0CD010010D40100209F
:101CB00024530010E4510010985300106D0B0020C5
:101CC000D8520010D451001000BDFFFF0E020020BA
:101CD0004853001010B5032304009C43064A944661
:101CE000644422681840C000FC3383409A4381401A
:101CF0001143216010BDC04600E400E0F8B50500C6
:101D000001240443304BE31A2F2B2DD8FEF7ABFAF6
:101D1000002830D0EFF3108672B62C4B1B68002BD6
:101D2000FBD0BFF35F8F2849691A89108A005218C7
:101D30001301D2181302D2181304D3185B005B18D6
:101D4000234A926880001258A2421BD00022032A24
:101D500032D85100891888001B490918897949B27D
:101D600099421FD00132F2E7B7211A4B1A4A4900B3
:101D70001A48FFF765FC7221194B174AFF311748C3
:101D8000FFF75EFC124A926816491150164A117804
:101D9000A9711370BFF35F8F0C4B00221A6086F39A
:101DA0001088F8BD084851008F18BC000419FF279F
:101DB000A7710E4AA280E9E7C1210D4B064A4900EE
:101DC0000648FFF73DFCC046D4010020240100D0A6
:101DD00000ED00E0F0520010F85100109853001090
:101DE00018530010CD0100106D0B002000BDFFFF47
:101DF000404F001010B5002404E080212000FFF7C0
:101E000069FF01341F2CF8D910BD704710B50028A8
:101E100002D00B684968984710BD002307E09A007C
:101E2000D3185A004B1C03600B789B18303B016899
:101E30000A78303AD2B2092AF1D918007047F0B5C1
:101E4000D6464F464646C0B582B005000091904642
:101E500001930A9B99460B9C0C9E0D9B9B0712D0ED
:101E60004E460C9B994618E0541C019B009920207B
:101E7000A84701372200B742F6D354460C964E4687
:101E80000C9B994609E02700A246F4E7013C571C49
:101E9000305D019B0099A8473A00002CF6D14E46D0
:101EA0000D9B9B070AD5474605E0541C019B0099F2
:101EB0002020A8472200D31BB342F6D3100002B063
:101EC0001CBC90469946A246F0BDF0B5CE464746AA
:101ED00080B587B0049205930E9E0F9C10AD2B78B1
:101EE0009946129F139B149DAA071CD4002B0CD05B
:101EF000EA070AD54A46002A02D10C322A4204D007
:101F0000013B02E0302232550134BC4205D21F2C85
:101F1000F8D902E0302232550134EA0703D59C4259
:101F200001D21F2CF6D9EA0615D56A0505D4002C76
:101F300003D0BC421CD09C421AD0119A102A23D044
:101F4000119A102A28D0119A022A2DD01F2C02D8BB
:101F50003027375501341F2C2FD84A46002A29D163
:101F60006A0737D42A0728D520273755013424E0BB
:101F7000671E002F06D0119A102A01D03C00DCE722
:101F8000023CDAE73C00D8E7AA06D9D41F2CD7D800
:101F9000782737550134D9E7AA06D4D51F2CD2D8D3
:101FA000582737550134D1E71F2CCFD86227375532
:101FB0000134CBE72D273755013403950293019463
:101FC0000096059B049AFFF73AFF07B00CBC9046B9
:101FD0009946F0BD2B2737550134EEE7F0B5C646DC
:101FE00000B594B0089009910A920B931AAB10CBEC
:101FF0001B7898461F9D002C01D110239D438027FC
:10200000FF002F4016D0002C20D0002712E0AA0697
:102010001AD54121C918C9B20A39C9B27E1C0CAB04
:10202000D9551C99200000F0BDFF041E0FD01F2EB3
:102030000DD837001C99200000F0B4FFCBB2092B5B
:10204000E5D83033D9B2E9E76121E3E70026069508
:102050001E9B05931D9B04931C9B03934346029375
:1020600001960CAB00930B9B0A9A09990898FFF70D
:102070002CFF14B004BC9046F0BDF0B5D6464F46D8
:1020800080B599B00C900D910E920F93209C219DDC
:1020900022AB1B789A46249B0A93259B0B93289B83
:1020A000994623002B4303D110334A469A43914665
:1020B0008026F6004B461E4007D023002B4331D02C
:1020C000002637004E4609941BE037004E4609941F
:1020D00017E0B20621D54122D218D2B20A3AD2B2C2
:1020E0007C1C10ABDA550A9A0B9B0998290000F06A
:1020F0009FFF09900D000B00034315D01F2C0ED835
:1021000027000A9A0B9B0998290000F091FFD3B28F
:10211000092BDED83033DAB2E2E76122DCE72700B0
:10212000B14603E0002701E02700B1464B46069385
:10213000279B0593269B04930A9B03935346029384
:10214000019710AB00930F9B0E9A0D990C98FFF717
:10215000BCFE19B00CBC91469A46F0BDF0B5D6460F
:102160004F4680B595B008900691099207931C9C44
:102170001D9E220033002000310001F0D0F900281C
:1021800000D06EE101225242D44B2000310001F018
:10219000C1F9002800D064E101225242D04B200056
:1021A000310001F0A1F9002800D05AE100220023FB
:1021B0002000310001F098F9002800D066E10B946E
:1021C0000A968023DB00209A1A409146131E01D103
:1021D00006331E930B9B0A9A100D4005400DC14912
:1021E0008C4660441203150B0C93BF4B2B430D938D
:1021F00001F0A8F9BD4ABE4B01F034F9BD4ABE4B0F
:1022000001F01EF90E900F910022BC4B0C980D9915
:1022100001F00DF9BA4ABB4B01F024F902000B00A2
:102220000E980F9901F00CF901F0A4F9050001F0E6
:1022300089F9B54AB54B0C900D9101F013F90022C4
:10224000B34B01F0FDF801F095F90700B14AB24B2C
:102250000C980D9901F006F90C900D91380001F0E1
:1022600071F9AE4AAE4B01F0FDF802000B000C987C
:102270000D9901F0DCF802000B000E900F9101F0B7
:10228000F1F810901191A74B9C4667443B050D93C4
:1022900000230C930E980F9902000B0001F0D0F868
:1022A000129013910E9A0F9B00208021C90501F016
:1022B000BEF80E900F9100229B4B1098119901F0DF
:1022C000C8F80022994B01F0BBF802000B001098EF
:1022D000119901F0BEF80022954B01F0B1F802000F
:1022E0000B001098119901F0B4F802000B000E9841
:1022F0000F9901F0A5F802000B001298139901F054
:10230000A8F80022784B01F09BF80C9A0D9B01F085
:10231000A9F80C900D910A0001000E910F920B9AF2
:102320000A9B0C980D9901F0F5F8002808D0013DA2
:1023300000227E4B0C980D9901F08BF80E900F91B6
:102340002B006333C62B00D9A8E00427209B1B0574
:102350001FD5784A784B0B980A9901F0D3F80028DA
:1023600000D1A0E00022754B0B980A9901F0BCF84F
:10237000002800D197E01E9BAB4200DC90E05D1B83
:102380006B1E1E938023DB00209A1A4320920027A5
:1023900000251F9B9F4200D391E0DB1B9A4602233E
:1023A000209A1A40914603D0002F01D000239A466C
:1023B000002D07D00E9A0F9B0B980A9901F049F84F
:1023C0000B900A91002200232000310001F08CF8CC
:1023D000002800D076E05A4B209A134004935346CD
:1023E00003931E9B02930B9A0A9B00920193079BF7
:1023F000099A0699089800F0A5F8002F41D0209B73
:102400009B0666D545231C00431C9A46079B020089
:1024100006992000089CA047E8172A184240EB0FB5
:10242000013F052105910497002103910A31029192
:1024300001930092079B524606992000FFF7CEFDBC
:102440004B46002B1DD00200089D099C131B1F99B1
:102450008B4241D2561C079B06992020A847320088
:10246000F4E7209B04931F9B03931E9B029322007F
:10247000330000920193079B099A0699089800F08F
:1024800061F815B00CBC91469A46F0BD0B948023C0
:102490001B069C46B44463460A9392E6052755E71B
:1024A00000231E936EE71E9B002B00D171E74B4665
:1024B000002B00D16DE71E9B013B1E9369E70023B3
:1024C0009A466CE70A9980200006844661440A9186
:1024D00081E765231C0097E71000D2E7FFFFEF7F3D
:1024E000FFFFEFFF01FCFFFF0000F03FFB799F5073
:1024F0001344D33FB3C8608B288AC63F0000F83F1F
:1025000061436F63A787D23F71A379094F930A4054
:102510000000E03F1655B5BBB16B0240EF39FAFE43
:10252000422EE63FFF03000000002C400000244044
:10253000000018402D431CEBE2361A3F80842E41E8
:10254000FFF7FFFFF0B5D646474680B597B0069037
:10255000079108920993209F1E9A1F9B1000190053
:1025600000F0DDFF00282AD101225242BB4B1E9809
:102570001F9900F0B9FF002830D101225242B84B18
:102580001E981F9900F0C6FF00283AD00423229A13
:10259000134032D0B34A002B31D103232299039147
:1025A0002199029101930092099B089A0799069834
:1025B000FFF745FC17B00CBC90469A46F0BD229B35
:1025C0000393219B029303230193A74B0093099B41
:1025D000089A07990698FFF732FCEBE7229B0393D2
:1025E000219B029304230193A04B0093099B089A1B
:1025F00007990698FFF723FCDCE79D4ACBE7042305
:10260000CCE700229B4B1E981F9900F083FF002807
:1026100017D10022984B1E981F9900F065FF0028E3
:102620000FD1002200231E981F9900F05DFF0028A3
:1026300017D100239A46229B5B0500D47DE000263B
:102640001FE0229B0493219B039302971E9B1F9CD8
:1026500000930194099B089A07990698FFF77EFD5D
:10266000A8E71E9A1F9B0020002100F0E0FE1E90AC
:102670001F9101239A46DEE70EAB30229A55013FA7
:1026800001361F2E01D8092FF6D81E981F9900F089
:1026900071FF040000F056FF02000B001E981F9906
:1026A00000F0C5FEFA00754B9B181A685B680C9227
:1026B0000D9300F0D7FE0A900B9100F07FFF05000C
:1026C00000F03CFF02000B000A980B9900F0AFFEEF
:1026D0000A900B9100226A4B00F01CFF00282ED0BC
:1026E0000135280000F02AFF02000B000C980D991C
:1026F00000F000FF002801D001340025002F2CD16C
:10270000200000F01FFF02000B001E981F9900F030
:102710008EFE00225A4B0A900B9100F0E5FE002835
:1027200041D10022564B0A980B9900F0F3FE002885
:1027300039D1E30737D5013435E006277FE700229A
:102740004F4B0A980B9900F0CFFE0028D6D1002DF0
:1027500001D0EB07D2D50135D0E70A941F2E10D84F
:10276000013F0A21280000F01DFC741C30310EAB23
:1027700099550A21280000F015FC051E25D02600D9
:10278000ECE70A9C04E00EAA302191551F000136A7
:102790001F2E02D87B1E002FF5D11F2E03D80EABA3
:1027A0002E229A5501361F2E14D80A21200000F03F
:1027B000CDFB751C30310EAB99550A21200000F07D
:1027C000C5FB041E05D02E00EDE7A0460A9C464638
:1027D000DEE72E000323229A1340012B16D01F2E72
:1027E00006D85346002B28D00EAB2D229A55013621
:1027F000229B0393219B029301960EAB0093099BAE
:10280000089A07990698FFF71AFBD3E6219B002B3D
:102810000DD05346002B02D10C33134207D0219B1D
:10282000013B219303E00EAB30229A550136219BE8
:102830009E42D4D21F2EF6D9D1E7229B5B0704D546
:102840000EAB2B229A550136D2E7229B1B07CFD520
:102850000EAB20229A550136CAE7C046FFFFEFFFB4
:10286000FFFFEF7FB4550010C0550010C455001095
:10287000BC55001065CDCD4165CDCDC1D055001002
:102880000000E03FF0B5DE4657464E464546E0B50F
:1028900095B006000B9115001393002900D1FCE2BE
:1028A0000027139B1878002800D1F8E2252809D0CA
:1028B0007C1C2B003A000B99B047139B01331393F8
:1028C0002700EEE70133139300241DE00B00303B9B
:1028D000DBB2092B37D92A293AD000239A46139B19
:1028E0001A782E2A44D000230C93139A1378683B4D
:1028F000D9B2122900D980E08B00D049CB589F462D
:1029000001231C4301321392139A11780B00203BD0
:10291000D8B21028DAD88300C948C3589F4602238A
:102920001C4301321392EFE704231C43013213923C
:10293000EAE708231C4301321392E5E710231C4306
:1029400001321392E0E713A8FFF767FA8246C6E761
:102950001E9B1A1D1E921B68002B04DB9A46139BBC
:1029600001331393BBE7022214435B429A46F6E716
:102970008022D20014435A1C13925A781300303B21
:10298000DBB2092B04D92A2A07D000230C93ACE729
:1029900013A8FFF742FA0C90A7E71E9B1A1D1E9280
:1029A0001B68002B04DB0C93139B013313939CE7F0
:1029B0000023F8E780235B002343511C13915278D6
:1029C0006C2A01D01C0018E0C0239B001C4301317D
:1029D000139112E080232343511C13915278682AEB
:1029E00001D01C0009E0C0231C430131139104E015
:1029F00080235B001C4301321392139B1878030061
:102A0000253BDAB2532A00D93DE293008D4AD358D0
:102A10009F4680239B001C4301321392EDE78023E5
:102A20005B001C4301321392E7E778280AD058284C
:102A30003BD06F283CD062283DD010239C43063BFE
:102A40009C4601E010239C46582837D0692803D0C3
:102A5000642801D00C229443630501D501229443DC
:102A600069282ED064282CD0A30500D5A5E0E30565
:102A700000D5BFE0630600D4D2E01E9A111D1E915E
:102A80001168FF220A400594534604930C9B03935C
:102A9000634602930023019300922B003A000B99A6
:102AA0003000FFF79BFA07002BE010239C46CBE792
:102AB00008239C46C8E702239C46C5E7202214430E
:102AC000C4E7A30521D4E30551D4630668D51E9A53
:102AD000111D1E911168FF220A40D317D1185940C9
:102AE000D20F0594534604930C9B039363460293C1
:102AF000019200912B003A000B993000FFF76EFA1B
:102B00000700139B01331393CBE61E9BDA1D0721AD
:102B10008A43110008311E91116853689846DB17EB
:102B200010931193109A119B100048400E901900B9
:102B3000404641400F910E980F99801A99410E908E
:102B40000F914346DA0F0894534607930C9B069364
:102B500063460493002305930292009001912B0099
:102B60003A000B993000FFF788FA0700C9E71E9A70
:102B7000111D1E911268D317D1185940D20F059418
:102B8000534604930C9B0393634602930192009176
:102B90002B003A000B993000FFF720FA0700B0E74E
:102BA000230605D51E9A111D1E910023D25E94E7BF
:102BB0001E9A111D1E9112688FE71E9BDA1D0721B8
:102BC0008A43110008311E915368126800920193E4
:102BD00000220894534607930C9B06936346049384
:102BE000059202922B003A000B993000FFF745FA4C
:102BF000070086E71E9A111D1E9113680093059425
:102C0000534604930C9B0393634602930023019362
:102C10002B003A000B993000FFF7E0F9070070E74E
:102C2000230606D51E9A111D1E9112681204120C5D
:102C300029E71E9A111D1E91126824E7D453001033
:102C4000205400106454001046281AD01E9B0733ED
:102C5000072293431A0008321E921A685B6800929A
:102C600001930494534603930C9B02932B003A0068
:102C70000B993000FFF766FC0700139B0133139399
:102C80000FE620231C43E1E7672801D0472802D143
:102C900080231B011C43452801D0472801D1202354
:102CA0001C431E9B0733072293431A0008321E92CF
:102CB0001A685B68009201930494534603930C9B3B
:102CC00002932B003A000B993000FFF747FA0700F8
:102CD000139B01331393E4E502232340994622D04A
:102CE000012398461E9B1A1D1E927C1C18782B00EF
:102CF0003A000B99B0474B46002B1AD1139B013376
:102D000013932700CDE5571C0C9B0B992020A84757
:102D100023003A005C1C9E42F5D8B2461700A0463C
:102D20002E000C9DDEE701233A000C953500564637
:102D3000F0E7220043460C953500564606E0571C46
:102D40000C9B0B992020A84723003A005C1C9E4254
:102D5000F5D814002E000C9DD0E71E9B1A1D1E9264
:102D60001B689B460C9B002B21D1012252425B46E3
:102D700001E001330A001978002902D0511E002A0F
:102D8000F7D15A469B1A98468023DB002340994688
:102D900003D00C9B984500D99846022323401293F8
:102DA00007D03A005C4637004E460D951FE00C9A5E
:102DB000DDE73A004346370056460D9506E0551CC0
:102DC0000D9B0B992020B84723002A005C1C9E42D3
:102DD000F5D8B2463E00A0465C4637004E4606E0B7
:102DE0000C930134551C0D9B0B99B8472A00207891
:102DF000002805D0002EF4D00C994B1E0029EFD1ED
:102E00003E0017000D9D129B002B03D1139B013335
:102E1000139346E543460C953500564606E0571C8D
:102E20000C9B0B992020A84723003A005C1C9E4273
:102E3000F5D817002E000C9DE8E7212323431E9AA6
:102E4000111D1E91126800920593082304930C9B98
:102E5000039310230293002301932B003A000B9954
:102E60003000FFF7BBF80700139B0133139318E5FD
:102E70007C1C2B003A000B992520B047139B013393
:102E8000139327000DE57C1C2B003A000B99B047EB
:102E9000139B01331393270003E5094E00E5AF426E
:102EA0000CD36A1E2B000B990020B047380015B0D8
:102EB0003CBC90469946A246AB46F0BD3A00F1E7CD
:102EC0000B1E001000B585B0029003910121009304
:102ED00013004A4202A90248FFF7D4FC05B000BD26
:102EE0000D1E001001480421014B1847200200204C
:102EF000152F001010B5010018231B88142210880C
:102F0000984710BD10B5010018231B8816221088A1
:102F1000984710BDF0B5C64600B507000E00002565
:102F20000123984600E00135B5420AD2AC003C19B5
:102F30002068FFF7DFFF20600028F4D100239846C7
:102F4000F1E7404604BC9046F0BD0000144A936F80
:102F50009B0815D29066D166002905D0FFE7FFE7F0
:102F6000FFE7516F106F704704B580210906C21743
:102F70005140002800D0C84301F0A2FD002104BD4B
:102F8000936F5B08FDD3F0B5946ED56E576F166FD7
:102F9000FFF7E0FF9466D56657671667F0BD00003F
:102FA000000000D0134A936F9B0813D2106651663D
:102FB000002905D0FFE7FFE7FFE7516F106F70476B
:102FC00004B5002801D00020C04301F079FD0021A4
:102FD00004BDC046936F5B08FDD3F0B5946ED56E0B
:102FE000576F166FFFF7E2FF9466D566576716674F
:102FF000F0BD0000000000D094464E4A926F920847
:10300000624601D230E0C046F0B54A4EB56F6D0859
:10301000FCD3346E756E776F366F00F025F89446EA
:10302000444A14665566576716676246F0BDC04647
:103030009446404A926F9208624601D258E0C046D8
:10304000F0B53C4EB56F6D08FCD3346E756E776F7E
:10305000366F00F04DF89446364A14665566576749
:1030600016676246F0BDC046002B24DB11D0002954
:103070003EDA00B5C943404200D1013100F038F8D2
:10308000C943404200D10131DB43524200D10133F8
:1030900000BD002AEBD1002801D1002905D0002075
:1030A000C90FC90701D1C043410800B501F000FDB7
:1030B0000022002300BD00B500290ADBDB43524299
:1030C00000D1013300F014F8C943404200D101316E
:1030D00000BDC943404200D10131DB43524200D11F
:1030E000013300F005F8DB43524200D1013300BD4B
:1030F000002923D1002B18D1002A0CD0BC460D4F3B
:1031000038667A6600210023FFE7FFE7FFE77A6F62
:10311000386F67467047002801D00748010000B5A6
:1031200001F0C6FC0022002300BD02000B000020BD
:1031300000217047000000D0FFFFFFFF002B00D0F0
:10314000BDE0130C26D1002AE7D080B4104F3966B9
:103150007A66FFE7FFE730B4040C7B6F396F1B041E
:1031600023433B66FFE7FFE7FFE7C04684B27B6F80
:103170003D6F1B0423433B66FFE7FFE7C046002388
:103180002C042D0C7A6F386F00196941B0BC704760
:10319000000000D0F0B594460025140E01D11202B3
:1031A0000835140F01D112010435940F01D192009A
:1031B0000235D40F01D152000135D40B0134254F13
:1031C0007C66254C3C660E0C93B2FFE7FFE7FFE7F9
:1031D0003C6F6643360C7703BE467343DF0B5B04DC
:1031E000C01AB941130C7343DB18C91ACE086643E1
:1031F000360CB64493B273431F0F1B01C01AB9417A
:10320000130C73431F0B1B05C01AB941860D8F02A7
:103210003E436643360C092D24DB520A7243801A62
:103220007703460A6643360C16235B1BDE40DF40FD
:10323000BF1964466643821B70460435063301009D
:10324000D940A840C01900D30131A24206D20023C0
:10325000F0BD0000000000D0FFFFFFFF121B013097
:10326000F3D3F1E709277F1BFE406446A2B2724305
:10327000801A00D20139220C7243130C1204821AF4
:1032800099410B007046043513370100F940A840FE
:10329000801900D30131002B02D1A2420AD2F0BD25
:1032A000013000D30131121BFAD2013BF8D1A24206
:1032B00000D2F0BD013000D30131121BF7E7F0B5A9
:1032C0001C0C00D080E00CB400251C0A04D11B02A9
:1032D000160E3343120208351C0B04D11B01160FC6
:1032E0003343120104359C0B04D19B00960F3343EA
:1032F00092000235DC0B02D192185B4101351C00B3
:10330000971864410134464F7C66464C3C660E0C6F
:10331000FFE7FFE7FFE7C0463C6F6643360C7703E5
:10332000BE4697B27743C01B00D20139C01B00D202
:1033300001399FB27743C91BC91B170C77437E0421
:10334000FF0B801BB941CE086643360C0C2D33DBD6
:10335000B644120B1F053A431B0B97B27743C01BB1
:1033600000D201399FB27743C91B170C77433E0443
:103370003F0C801BB941860D8F023E4366432927CF
:103380007F1BFE400C3D7746AF40BF1930BCA2B258
:10339000ABB272437343801A9941220C7243130CEF
:1033A0001204801A994102000B000137001BA94149
:1033B000F9D2781E0021F0BD0C277F1BFE40774616
:1033C0007F0BAF40FF19E0E700245D1C07D0144FCE
:1033D0007D663966FFE7FFE7FFE7FFE73C6F95B2E1
:1033E0009EB265436643401BB141150C1E0C6543FC
:1033F000664336042F0C3E432D04401BB1419942D5
:1034000004D202000B0020000021F0BD01D1904247
:10341000F7D3801A994101349942F2D3F6E70000BC
:10342000000000D0FFFFFFFF48404140484018B473
:10343000114B5B68FC46019308BD04DFC7360010E2
:1034400018B40D4B1B68FC46019308BD00DFD13654
:10345000001018B4084BDB68FC46019308BD0CDF74
:103460008939001018B4044B9B68FC46019308BDD1
:1034700008DF2D3800100000740B0020FFB550400D
:103480004240504059404B40594000E0FFB5154F75
:103490004C00640D03D0BC4204D10C0314D80020AE
:1034A000090D09055C00640D03D0BC4204D11C0366
:1034B0000AD800221B0D1B0501264B4009D44B40A6
:1034C00003D58B4200D18242FFBD9942FCD190428C
:1034D000FFBD0B43DB1803431343F5D0C943491821
:1034E000FFBD0000FF07000000B5FFF7CFFF8041E0
:1034F00000BDC04600B5FFF7C9FF01D9002000BDDF
:10350000012000BD00B5FFF7B9FF01D9002000BDC3
:10351000012000BD00B5FFF7B1FF804100BD0120D3
:1035200040054A00121804D85A00121801D8002089
:1035300070470120704700207047000000210028DC
:1035400005D17047C1174840401AFAD0C90713B5D2
:10355000064B1B6898470CBC441CA2401005120B7C
:103560000349091B09051943114310BD740D0020BF
:103570001F04000010B54C00620D8023D218DB0040
:10358000D21A5B057E2A10DD9E3A13DACC170903A6
:10359000490819435242D140640001341532202AAF
:1035A00005DAD0400843604310BD002010BD084636
:1035B000604310BDC80FC018013810BD18B4044BCB
:1035C0005B6AFC46019308BD24DFB53B0010000098
:1035D000740B002070B513231C78012C0FD0012C24
:1035E0000FDC022C02DC1D4A1D4B9A6470BD990051
:1035F0001A481B4A885001331F2BF8D9EFE70023E4
:10360000FAE71848FFF77EFC05001748FFF77AFC39
:10361000023803789B007F2B19DD80222900104897
:1036200000F0ECFB022CDCD1104B1A88B5231B02F6
:103630009A4209D10E4B1A880E4B9A4204D10E4B76
:103640001A880E4B9A42CCD00020FEF717F80C4B8C
:103650000C4A30210C48FDF7F3FFC0468D360010B0
:10366000740B0020534400005346000054380000FF
:10367000D8380000494600009C3800005946000038
:1036800020560010C85600108056001007B560463E
:10369000002800D100BE01880A0A0230DF2AFAD1D0
:1036A000C9B2820804D3028840880004104300E0B5
:1036B0000068024A5050039007BD0000740B0020C0
:1036C0000FB403BC0CBCF0B50124E407634000E078
:1036D000F0B50C0DCF0F661E3605891B640503D3AC
:1036E000C943404200D30131640D03D0661CF60A81
:1036F00007D0E41B00207F00791C89078912803CD9
:1037000024031D0DDF0F6E1E36059B1B6D0503D3B5
:10371000DB43524200D301336D0D03D06E1CF60A19
:1037200007D0ED1B00227F007B1C9B079B12803D76
:103730002D032F1B661B58D4A446202E46DA2037B3
:103740001400BC401D00BD40F24033412A438018A4
:103750005941CB0F05D0C943C043002264425041B8
:10376000514162464D0D28D10D0D07D100281FD0C3
:10377000241940414941013A0D0DF9D0640006D3A6
:10378000013000D30131002C01D140084000013A42
:103790000BD4941CE40A04D112051144DB0719442C
:1037A000F0BDD907204B194300E0D9070020F0BD38
:1037B0000029DDD1002CDBD1F0BD0132C607400865
:1037C000CD0728434908002EE1D0D9E73C2E29DA5D
:1037D000203E40371400BC4000D00124F240144386
:1037E0001A00BB401C43D317ACE7AC46202F08DAC5
:1037F00020360400B4400D00B540F840394128435C
:10380000A5E73C2F0CDA203F40360400B44000D03E
:103810000124F84004430800B1400C43C117EAE713
:1038200010001900002494E70000F07FF0B50C0DA3
:10383000661E3605891BE60A6405640D02D0651C08
:10384000ED0A04D0002001210905803C2403A44690
:103850001C0D671E3F05DB1BE70A6405640D02D0E3
:10386000651CED0A04D0002201231B05803C2403C3
:103870007740644497B484B296B27443070C7E4395
:10388000150C6F4380B26843361802D30120000440
:103890003F183004350C00197D41844688B29AB235
:1038A00050430C0C62431F0C7C438EB27E43921932
:1038B00002D301263604A4191604170C36186741E2
:1038C00001BC81B29AB25143040C62431B0C5C43AD
:1038D00080B25843121802D30120000424181004A7
:1038E000130C401863412D185E410020474106BC6F
:1038F00088B293B258430C0C6343120C544389B200
:1039000051435B1802D301210904641819041A0CED
:10391000091862416D1856410020474118BCF90250
:10392000720D1143F0026A0D1043ED020A0D03D12E
:103930006D1940414941013B124E9B1B7600B34239
:103940000ED26D0007D30130002671416646354323
:1039500001D1400840001B05C918E4072144F0BD0F
:103960000BDA013306D1013004D101314F0D01D002
:103970004908F2E7E1070020F0BD013631050020DB
:10398000EBE70000FF030000F0B51C0D671E3F05CC
:10399000DB1BE70A6405640D02D0661CF60A04D03E
:1039A000002201231B05803C2403D0252D06002680
:1039B000F6432E661E096E66CE0FF619B446490010
:1039C0004F0D02D07E1CF60A03D000200021403F9C
:1039D0003F033E1BB600B444013F7F05C91B4908A5
:1039E0002E6F013676089C02950D25437543ED1325
:1039F0007543AD1301356D10F603761B0CB4CC0284
:103A0000450D2C43A2B2B3B25A43270C7B43350C6D
:103A10006F43A4B26C431B1902D3012424043F1941
:103A20001C041D0CA4187D4124196D41009A91B20B
:103A3000ACB26143170C7C432B0C5F4392B25A43E8
:103A4000A41802D301221204BF182204230C521816
:103A50007B41019C6C431B19520ED9010A4344015E
:103A6000A01A81B2B2B2514303145A43360C7343C5
:103A700087B27743D617D21900277E4136049B19A7
:103A80001704160C7F185E417316ED18F30100261B
:103A900080337541A90F06D16400690AE8055B0A05
:103AA000184309D22FE00422944480337541A90AB7
:103AB000A8059B0A184326D3404149412404009A93
:103AC000019B0D005543641B4343E41A95B286B233
:103AD0007543170C7E43030C5F4392B25A43B618EA
:103AE00002D301221204BF183204330C52197B4155
:103AF00052429C41002C02D4002201305141400826
:103B0000CA071043490802B06246D7079210084B13
:103B1000D218084B9A4203D212058918C919F0BD70
:103B20000020002A01DC3900F0BD01331905F5E75A
:103B3000FD030000FE070000624618CA94460029F3
:103B40001ADAC01861415B463B415C46B4405246BC
:103B5000FA40224344464D4662416B4190469946A5
:103B60002B46B3403D41FC401C4352465B46A241BC
:103B7000AB4192469B467047C01AA1414B463B4120
:103B80004C46B4404246FA40224354465D466241A8
:103B90006B4192469B462B46B3403D41FC401C4343
:103BA00042464B46A241AB419046994670470020A1
:103BB00000217047002200B5203200F004F8080010
:103BC00000BD000000220B15F1D410B5944600F0A2
:103BD0002FF81414013400DA0021CB17134C2047BE
:103BE0006244343A0CD40C2A07DA04009140904025
:103BF00052422032D440214310BDD843D94310BD96
:103C0000203207D40C469440524220321141D04019
:103C1000204310BD0800C917203203D4524220327D
:103C2000104110BD1800190010BD0000E13B00104C
:103C30000A0DCC0F531E1B05C91A520503D3C943E5
:103C4000404200D30131520D03D0531CDB0A07D090
:103C5000121B00206400611C89078912803A12033C
:103C6000014BD21A70470000FF0300005143434349
:103C7000C9188C46110C83B24B4310B4040C614339
:103C800092B280B2504362431C041B0C001910BC5A
:103C900059411304120CC01851416144704700008F
:103CA00070B513231D782A48FFF72CF90400012D65
:103CB00011D0012D09DDA31E1B789B007F2B40DD59
:103CC00080222100234800F099F82348FFF712F9D9
:103CD000224B186070BD542201001E4800F08EF87F
:103CE0001F4B1A881F4B9A421CD1A7239B011A888D
:103CF0001D4B9A4216D11D4B1A881D4B9A4211D169
:103D00001C4B1A8894239B019A420BD11A4B1A8898
:103D10001A4B9A4206D11A4B1A681A4B9A4201D191
:103D2000152307E01848FDF7A9FC99001748094A30
:103D3000885001331F2BF8D9144A064B1A62DA61F6
:103D4000B7E7134B134A42211348FDF779FCC046ED
:103D500053460000740C00204C330000740D00200A
:103D6000EE290000C40F0000C20D0000962B0000D9
:103D7000C0B50000182B0000CC2A000010B50000D0
:103D8000FC2C000051ED8764005000109D3D001098
:103D9000DC560010545700101057001007B560464D
:103DA000002800D100BE01880A0A0230DF2AFAD1B9
:103DB000C9B2820804D3028840880004104300E09E
:103DC0000068024A5050039007BD0000740C0020A8
:103DD00010B500F015FA10BD10B500F0D9F910BDFE
:103DE00001480421014B184730020020152F001014
:103DF000014B1B681847000030020020014B5B6834
:103E00001847000030020020F8B506000D0017002A
:103E1000437C002B23D10368110028009847F8BD8C
:103E2000337C10E00221174833689847601C013446
:103E3000BC4217DA002CF3DD2B19013B1B780D3B3C
:103E40005A425341DBB22A5D0A2AF0D1002BEED14F
:103E5000A042E7DA211A281833689847E2E70024DD
:103E60000020E5E7B84203DA391A28183368984782
:103E7000002FD4DDED19013D2B780D3B5A42534103
:103E80003374CCE7BC57001070B505000368002BF5
:103E900016D00C4B1C6805E0291D2A682000FFF78E
:103EA000B3FFE468002C09D02368002BF9D0064B3F
:103EB0001B68002BF0D0A342F3D1EDE700232B6069
:103EC00070BDC046400B0020440B002070B50500BB
:103ED0000C000B68802B05D023685A1C2260E41864
:103EE000257170BD0800FFF7CFFFF5E710B582B070
:103EF000D0231B061C6801A9064800F0E9FD002834
:103F000006D1019BA34203D0024800F0E9FD012045
:103F100002B010BD980A002010B5024800F0C0FDA4
:103F200010BDC046980A0020F0B585B001900D0084
:103F30001600FFF7DBFF07006B1C02D0164B1C6856
:103F400005E0019800F03EFC0500F7E7E468002C6E
:103F500018D02368002BF9D0104B1B68002B01D020
:103F6000A342F3D12A0001992000FFF74DFF002E54
:103F7000ECD002ABD91D0A230B7001222000FFF701
:103F800043FFE3E7002F04D1681E8541E8B205B086
:103F9000F0BDFFF7C1FFF7E7400B0020440B002006
:103FA0000C4B1A681300002B0BD0834202D01A006E
:103FB000DB68F8E7002903D1DB68D3600023C36026
:103FC00070470029FCD0002A01D0D060F8E7014BEF
:103FD0001860F5E7400B002010B5064B1C6800E0A8
:103FE000E468002C04D06368002BF9D09847F7E709
:103FF00010BDC046400B002070B5050000F0E2FB8C
:104000000400012201002800FFF78EFFFFF7E4FF04
:10401000200070BD70B5A2B004000E00FFF766FF6F
:1040200005008422002101A8FFF7E2FE33002200F0
:1040300001A90848FEF746FF040001A8FFF724FF86
:10404000FFF7CAFF002D02D1200022B070BDFFF79C
:1040500063FFF9E7CD3E00100FB400B583B004A9AB
:1040600001C90191FFF7D6FF03B008BC04B018479F
:1040700010B500F079F810BDF0B583B0002506E06A
:104080006B469A1D14700024002C19D00135A942EA
:1040900020D9445D104B00229B5EA342F0D16B46B9
:1040A000DA1D0D2313700026002EE9D10B4B9B69FE
:1040B0009B06FBD41778094B1F6001360132F3E7EA
:1040C000064B9B699B06FBD41678044B1E6001349B
:1040D0000132D9E703B0F0BD700B0020004003406F
:1040E00070B582B0060000200BE0451C301800229D
:1040F0006B46DC1D002A0ED06B4607331B7803701D
:104100002800884203DA0A4B9B69DB06EDD50028BC
:104110000BD002B070BD064B9B69DB06FBD4044B91
:104120001B68237001320134E4E70338F1E7C0462D
:104130000040034070B515001C00FCF7F1F96B1C42
:104140000AD1631C03D002212000FCF729F90121C8
:104150000448FFF725FF70BD02212800FCF720F975
:10416000EFE7C0464002002010B5064B1B78064B17
:104170001B78E1210123002249020448FFF7DAFFFE
:1041800010BDC0461C5800102058001000400340CD
:1041900010B5044B0A001B680100180000F004F879
:1041A00010BDC0465802002010B5514300F03CF845
:1041B000041E1CD00300083B5A6803239A43043AA8
:1041C000242A16D80300132A0DD9002108330160D0
:1041D00041601B2A07D98160C160242A0DD10300E8
:1041E00001611833416100221A605A609A60200010
:1041F00010BD0021FFF7FCFDF9E703001033F2E7E3
:1042000010B5034B0100186800F00EF810BDC04651
:104210005802002010B5034B0100186800F054FB51
:1042200010BDC04658020020F0B557464546DE4650
:104230004E46E0B50D000B3583B00700162D28D88B
:10424000102900D9C1E000F0A7FA10251823022098
:10425000CE4EF3181A005C68083A944200D160E12F
:10426000032362689A431300E268A168CA60916000
:104270000122E318596838000A435A6000F08EFAA8
:104280002000083003B03CBC90469946A246AB469D
:10429000F0BD07239D4300D597E0A94200D994E0E3
:1042A00000F07AFAF823FF339D4200D85EE1680AF5
:1042B00000D18EE0042800D939E138239846A809B6
:1042C00080443930C100B14E71180839CC68A14220
:1042D00018D0032362689A431300521B0F2A00DD93
:1042E0001DE1002AC0DA03239C4608E062466368A9
:1042F00093435A1B0F2A00DD11E1002AB4DAE46867
:10430000A142F3D1320034690832944267D00323CA
:10431000616899438A460B00491B0F2900DD12E1B1
:10432000726132610029A3DA994A924500D948E1C5
:10433000DB08FF3A9910FF3A8A40DB0071689B194D
:104340000A4399687260E360A1609C60CC600121BF
:1043500083109940914248D80A4205D103239843DB
:10436000490004300A42FBD003239846C300994613
:10437000B144CC4682466346DC68A44507D1F9E0E7
:10438000002A00DB0EE1E468A44500D1F2E04246D9
:10439000636893435A1B0F2AF2DD0120804661199E
:1043A00005436560A068E5680836C560A8604046BA
:1043B000F160B16010434860CE608E603800E2501A
:1043C00000F0ECF9200008305CE70C2300203B6093
:1043D00058E780213F2389004020984673E7012158
:1043E0007268831099409142B6D90323B468626819
:1043F0009A439046AA4203D3531B0F2B00DD80E063
:10440000644B654A9A4693461B681268EB18013262
:1044100000D138E1614A944663441B0B1B030093AF
:104420000099380000F0BCF903008146013300D147
:10443000F6E04346E218824200D9EFE0514649686F
:10444000009B8C46514663444B60824200D14BE155
:1044500059460968013100D15DE149468A1AD318ED
:104460005246536007234A461A40019200D120E188
:1044700008214B4689469B1A99440099484B494468
:104480009B1A5B1A1B051B0D0091380019009B46F7
:1044900000F086F9431C00D15AE1534652465B684E
:1044A00049465B4453604A46B260801A0122584430
:1044B00010434860B44211D041460F2900D827E18B
:1044C00007200C3981436068024005200A4362607E
:1044D0006218506090600F2900D941E15246D26ABB
:1044E000934201D95246D3620322B4686168914372
:1044F0000A005146096B8B4200D895E051460B6388
:1045000092E00122290013431143651961603800CC
:10451000B5606B6000F042F920000830B2E640461A
:10452000F0E6DC680230A34200D1EBE698E61428FE
:104530006ED9542800D9A9E06E239846280B8044F0
:104540006F30C100BFE6012360191D4365607061D3
:104550003061C26082601A0053460A4342603800EC
:10456000E15000F01BF9200008308BE62B00E80832
:1045700008336DE608239B46073BDC449B46DA4440
:1045800043465246134200D0F5E667E0900600200D
:10459000FF010000D00A0020880600200F10000054
:1045A000081000000122E318596838000A435A60D5
:1045B000E368A268D3609A6000F0F0F82000083049
:1045C00060E65A0A042A3AD9142A00D983E05B2308
:1045D000984690445C32D20008235B429C46B21855
:1045E000944463469968032399468C4559D04B46B9
:1045F0004A689A43524502D989688C45F7D1CB68FD
:1046000072689C466346A160E3609C60CC609EE655
:104610005B23984680445C30C10054E6B4427ED0AF
:104620000323B46862689A43531B954202D80F2B48
:1046300000DD66E7380000F0B1F8002022E69A09B4
:104640003823984690443932D200C5E74B461A6861
:10465000083B013891469A4200D098E04346034215
:10466000F4D173688B4373604900994200D9BCE66A
:10467000002904D1B9E6042294464900E2440B42E1
:10468000F9D0504672E610330093C9E6AA235B00C6
:10469000984233D8DD3B9846E80B80447830C1001F
:1046A00011E6434601229B109A4073681A437260D8
:1046B000A8E7009B38004B4400931B055B421B0D91
:1046C00019009B4600F06CF8431C00D0E5E600237F
:1046D00000989B46E1E6542A29D81A0B6E23984687
:1046E00090446F32D20077E7110500D0B0E6012088
:1046F000009AB168424402434A60EFE6254B984273
:1047000020D87C239846A80C80447D30C100DAE58F
:104710004B465A608EE75B464A461A60A2E651460F
:104720004968009B8C46514663444B6090E6AA2141
:1047300049008A421CD8DA0B772398469044783295
:10474000D20049E7FE217E2389007F209846BAE502
:10475000009B01989C460023083860449B469CE6D9
:1047600021003800083100F0AFF853465B68B5E629
:1047700008498A4206D89A0C7C23984690447D3298
:10478000D20029E7FE227E239200984624E7736830
:104790006AE7C046540500007047C0467047C046EF
:1047A000002370B5064C050008002360FCF728FFC5
:1047B000431C00D070BD2368002BFBD02B60F9E7B1
:1047C000780D002010B5040083070AD00378002B71
:1047D00023D0032202E00378002B1CD001301042CA
:1047E000F9D102680E4B0F49D31893430B420FD1F6
:1047F000043002680A4BD31893430B4208D10430AB
:104800000268074BD31893430B42F1D000E001300C
:104810000378002BFBD1001B10BD0020FCE7C04635
:10482000FFFEFEFE80808080F8B50C000600FFF7DA
:10483000B3FF204FBB685D6803239D431E4B2C1BB9
:104840009C466444240B1D4B013C24039C4207DD21
:1048500000213000FFF7A4FFBB685B19984204D029
:104860003000FFF79BFF0020F8BD61423000FFF7EA
:1048700097FF431C0DD00122BB682D1B15435D60C3
:104880000F4B30001A68141B1C60FFF787FF0120D4
:10489000EAE700213000FFF783FFBA68831A0F2B85
:1048A000DEDD08490968401A0549086001210B430B
:1048B0005360D5E790060020EF0F0000FF0F0000C7
:1048C000D40A002088060020F8B5CE4647460500E9
:1048D00080B50C1E55D0FFF75FFF210008394F68E7
:1048E000012438000323A0430A1856689E43B146AA
:1048F000644EB368934229D04B465360D3189C460C
:104900003C4242D10F68C91B8B68C0199846634668
:104910005F6808239C46B4442740E0456AD043467C
:10492000CC68DC60A360002F32D1012448440443EA
:10493000A0469368544C0F18A34200D17FE0D26880
:10494000DA60936043464B60386025E003004B44D7
:104950003C4206D10A68891A88689B18CA68C260F6
:10496000906001221A434A60484AB16012689A4234
:1049700004D8474B28001968FFF756FF2800FFF7B7
:104980000DFF0CBC90469946F8BD5F682740CCD01F
:10499000012303434B6008503E4B98421AD9430A07
:1049A000042B33D88209140039323834D200B218BB
:1049B000083A936803279A4239D05C68BC43844222
:1049C00033D99B689A42F8D1D368CB608A609960EA
:1049D000D160D3E7C008FF3B8210FF3B9340726871
:1049E000C000134373608619B368CE608B60B160FA
:1049F000D960C3E7002F41D1030090684B44D268CF
:104A00001C43C26090604C60CB50B7E7142B07D9B1
:104A1000542B1CD8020B14006F326E34D200C6E740
:104A20001C005C335B34DA00C1E71A00CCE70123D9
:104A3000A410A3407068034373601300C5E7D960F6
:104A40009960CB608B6043464B60386096E7AA2242
:104A50005200934205D8C20B140078327734D2004A
:104A6000A5E70D4A934205D8820C14007D327C34B0
:104A7000D2009CE7FE227E24920098E704434C601B
:104A800010607BE790060020980600208C0600202E
:104A9000D00A0020FF01000054050000F8B5C04610
:104AA00001B40248844601BC604700BF6D0100208C
:104AB00001B40248844601BC604700BFB901002030
:104AC00001B40248844601BC604700BFB901002020
:104AD00001B40248844601BC604700BF25010020A4
:104AE00001B40248844601BC604700BFC1000020F9
:104AF00048656C6C6F2C20776F726C64210A0D0016
:104B000070685F6765745F6E6F64650070685F6191
:104B100064645F6368696C645F6E6F646500000065
:104B200070685F696E7365727400000070685F6121
:104B300064645F746F5F667265655F6C697374004F
:104B4000616C61726D5F706F6F6C5F6765745F64DD
:104B5000656661756C7400006765745F656E74727C
:104B6000790000006765745F656E7472795F6964CF
:104B70005F686967680000006164645F616C61720E
:104B80006D5F756E6465725F6C6F636B0000000033
:104B9000616C61726D5F706F6F6C5F616C61726D83
:104BA0005F63616C6C6261636B0000002170685F21
:104BB000636F6E7461696E7328706F6F6C2D3E68E1
:104BC0006561702C2072657573655F6964290000EA
:104BD0006964000072656D6F7665645F6964203D8D
:104BE0003D206E6578745F696400000063616C6CE1
:104BF0006261636B00000000706F6F6C2D3E616C32
:104C000061726D5F696E5F70726F6772657373203A
:104C10003D3D206D616B655F7075626C69635F69B6
:104C2000642869645F686967682C206E6578745FC2
:104C3000696429006964202626202170685F636FFB
:104C40006E7461696E7328686561702C20696429CF
:104C5000000000006964202626206964203C3D2075
:104C6000706F6F6C2D3E686561702D3E6D61785F71
:104C70006E6F6465730000002F686F6D652F6E693D
:104C8000636B2F7069636F2F7069636F2D73646B33
:104C90002F7372632F636F6D6D6F6E2F7069636F0B
:104CA0005F74696D652F74696D652E630000000087
:104CB000256C6C6420286869202530327829000032
:104CC00064656661756C745F616C61726D5F706F55
:104CD0006F6C00006964202626206964203C3D201A
:104CE000686561702D3E6D61785F6E6F64657300FD
:104CF0002F686F6D652F6E69636B2F7069636F2FFF
:104D00007069636F2D73646B2F7372632F636F6DA4
:104D10006D6F6E2F7069636F5F7574696C2F696E4C
:104D2000636C7564652F7069636F2F7574696C2F80
:104D300070686561702E6800706172656E745F697D
:104D4000640000006368696C645F696400000000CF
:104D5000706172656E745F696420213D20636869CB
:104D60006C645F69640000006861726477617265F9
:104D70005F616C61726D5F7365745F7461726765AA
:104D800074000000486172647761726520616C6133
:104D9000726D20256420616C726561647920636C9A
:104DA00061696D656400000074696D65725F6877A4
:104DB0002D3E696E74732026203175203C3C2061A5
:104DC0006C61726D5F6E756D000000002F686F6D15
:104DD000652F6E69636B2F7069636F2F7069636FE6
:104DE0002D73646B2F7372632F7270325F636F6DFC
:104DF0006D6F6E2F68617264776172655F74696D43
:104E000065722F74696D65722E6300006C6F636B41
:104E10005F696E69740000006C6F636B5F6E756D27
:104E2000203E3D2030202626206C6F636B5F6E7520
:104E30006D203C204E554D5F5350494E5F4C4F43C3
:104E40004B5300002F686F6D652F6E69636B2F7079
:104E500069636F2F7069636F2D73646B2F73726357
:104E60002F636F6D6D6F6E2F7069636F5F73796EF7
:104E7000632F6C6F636B5F636F72652E630000005E
:104E80006D757465785F656E7465725F626C6F6373
:104E90006B696E67000000006D757465785F6578FA
:104EA000697400006D74782D3E636F72652E7370A7
:104EB000696E5F6C6F636B002F686F6D652F6E6935
:104EC000636B2F7069636F2F7069636F2D73646BF1
:104ED0002F7372632F636F6D6D6F6E2F7069636FC9
:104EE0005F73796E632F6D757465782E63000000B3
:104EF0006D74782D3E6F776E6572203E3D203000D8
:104F000070685F6765745F6E6F64650070685F618D
:104F100064645F6368696C645F6E6F646500000061
:104F200070685F72656D6F76655F616E795F6865E9
:104F30006164000070685F64656C65746500000002
:104F4000666F756E640000006E65775F7375625FF3
:104F50007472656520213D20686561702D3E726F19
:104F60006F745F6964000000726F6F745F69640042
:104F70002F686F6D652F6E69636B2F7069636F2F7C
:104F80007069636F2D73646B2F7372632F636F6D22
:104F90006D6F6E2F7069636F5F7574696C2F7068C9
:104FA0006561702E630000002170685F6765745F43
:104FB0006E6F646528686561702C20726F6F745F16
:104FC0006964292D3E7369626C696E670000000098
:104FD0002170685F6765745F6E6F646528686561DE
:104FE000702C20726F6F745F6964292D3E7061723E
:104FF000656E74002C2066756E6374696F6E3A205E
:1050000000000000617373657274696F6E20222561
:105010007322206661696C65643A2066696C65205C
:10502000222573222C206C696E652025642573254A
:10503000730A00000A2A2A2A2050414E4943202A96
:105040002A2A0A000A000000636C6F636B5F636FBB
:105050006E666967757265007372635F667265710B
:10506000203E3D2066726571000000002F686F6D64
:10507000652F6E69636B2F7069636F2F7069636F43
:105080002D73646B2F7372632F7270325F636F6D59
:105090006D6F6E2F68617264776172655F636C6FAC
:1050A000636B732F636C6F636B732E630000000080
:1050B000706C6C5F696E6974000000006662646900
:1050C00076203E3D203136202626206662646976B1
:1050D000203C3D20333230002F686F6D652F6E69A4
:1050E000636B2F7069636F2F7069636F2D73646BCF
:1050F0002F7372632F7270325F636F6D6D6F6E2FDF
:1051000068617264776172655F706C6C2F706C6C33
:105110002E63000028706F73745F64697631203EDF
:105120003D203120262620706F73745F64697631CC
:10513000203C3D2037292026262028706F73745F7D
:1051400064697632203E3D203120262620706F7320
:10515000745F64697632203C3D20372900000000EE
:10516000706F73745F64697632203C3D20706F739A
:10517000745F6469763100007265665F6D687A20DD
:105180003C3D202876636F5F66726571202F203169
:10519000362900006972715F7365745F6578636CAE
:1051A00075736976655F68616E646C657200000096
:1051B0006D616B655F6272616E636800696E7365D5
:1051C00072745F6272616E63685F616E645F6C6966
:1051D0006E6B00007265736F6C76655F6272616EF4
:1051E000636800006972715F72656D6F76655F68F4
:1051F000616E646C657200006972715F6164645F06
:105200007461696C5F746F5F667265655F6C69730A
:10521000740000006972715F68616E6465725F633B
:105220006861696E5F667265655F736C6F745F68F5
:10523000656164203E3D20300000000076746162AC
:105240006C655F68616E646C6572203D3D205F5FD8
:10525000756E68616E646C65645F757365725F69B5
:1052600072710000212828282875696E7470747284
:105270005F7429767461626C655F68616E646C65E9
:105280007229202D20282875696E747074725F74DD
:10529000296972715F68616E646C65725F636861D1
:1052A000696E5F736C6F747329202D20312925730B
:1052B000697A656F66287374727563742069727198
:1052C0005F68616E646C65725F636861696E5F736D
:1052D0006C6F74292900000030783163203D3D2037
:1052E000282A696E7374293E3E3131750000000032
:1052F00069735F7368617265645F6972715F72611F
:10530000775F68616E646C657228736C6F745F6838
:10531000616E646C65722900657863657074696F8D
:105320006E00000021657863657074696F6E207C83
:105330007C20657863657074696F6E203D3D206EDA
:10534000756D202B2031360066616C73650000009E
:1053500063757272656E74203D3D205F5F756E6887
:10536000616E646C65645F757365725F69727120EC
:105370007C7C2063757272656E74203D3D2068618F
:105380006E646C6572000000212864656C74612095
:105390003E3E2031317529002F686F6D652F6E6993
:1053A000636B2F7069636F2F7069636F2D73646B0C
:1053B0002F7372632F7270325F636F6D6D6F6E2F1C
:1053C00068617264776172655F6972712F69727169
:1053D0002E630000D4290010FA290010122A0010B0
:1053E000FA290010B4290010FA290010FA29001037
:1053F000FA290010FA290010FA290010FA290010E1
:10540000FA290010F0290010FA290010FA290010DA
:10541000FA290010FA290010FA2900101E2A00109B
:1054200032290010CC280010CC2800103C29001094
:10543000CC280010CC280010CC280010CC2800105C
:10544000CC280010CC280010CC28001028290010EF
:10545000CC2800101E290010CC280010CC280010E9
:1054600000290010702E0010862E0010862E0010CD
:10547000862E0010862E0010862E0010862E00101C
:10548000862E0010862E0010862E0010862E00100C
:10549000862E0010862E0010862E0010862E0010FC
:1054A000862E0010862E0010862E0010862E0010EC
:1054B000862E0010862E0010862E0010862E0010DC
:1054C000862E0010862E0010862E0010862E0010CC
:1054D000862E0010862E0010862E0010862E0010BC
:1054E000862E0010882C0010482C0010882C0010EC
:1054F000862E0010862E0010862E0010862E00109C
:10550000862E0010862E0010862E0010862E00108B
:10551000862E0010862E0010862E0010862E00107B
:10552000862E0010862E0010862E0010862E00106B
:105530002A2A0010862E0010862E0010862E0010BB
:10554000862E0010862E0010862E0010862E00104B
:10555000862E0010862E00102A2A0010D82C00104B
:105560002A2A0010882C0010482C0010882C0010CB
:10557000862E00102A2A0010862E0010862E00107B
:10558000862E0010862E0010862E00102A2A00106B
:105590003A2E0010862E0010862E00105A2D001074
:1055A000862E00102A2A0010862E0010862E00104B
:1055B0002A2A0010666E692B00000000666E6900E2
:1055C0006E616E00666E692D000000000000000034
:1055D000000000000000F03F000000000000244038
:1055E00000000000000059400000000000408F4013
:1055F000000000000088C34000000000006AF8407E
:105600000000000080842E4100000000D0126341A1
:105610000000000084D797410000000065CDCD4117
:105620002A282875696E74385F74202A292828284A
:10563000766F6964202A29726F6D5F646174615F9F
:105640006C6F6F6B757028726F6D5F7461626C65E3
:105650005F636F6465282753272C20274627292955
:10566000292D322929202A2034203E3D2053465F0F
:105670005441424C455F56325F53495A4500000041
:105680002F686F6D652F6E69636B2F7069636F2F65
:105690007069636F2D73646B2F7372632F72703236
:1056A0005F636F6D6D6F6E2F7069636F5F646F7591
:1056B000626C652F646F75626C655F696E69745F9B
:1056C000726F6D2E630000005F5F61656162695FEC
:1056D000646F75626C655F696E6974002A2828754D
:1056E000696E74385F74202A2928726F6D5F746147
:1056F000626C652D322929202A2034203E3D20531A
:10570000465F5441424C455F56325F53495A45000B
:105710002F686F6D652F6E69636B2F7069636F2FD4
:105720007069636F2D73646B2F7372632F727032A5
:105730005F636F6D6D6F6E2F7069636F5F666C6F07
:1057400061742F666C6F61745F696E69745F726FEC
:105750006D2E63005F5F61656162695F666C6F619A
:10576000745F696E6974000006005250BBFF3CB65E
:10577000A0570010060052503ABCA91194570010CF
:1057800006005250D3F075428C5700104465627584
:1057900067000000302E3100312E302E3100000025
:1057A0007069636F000000007274635365740000D9
:1057B0004665622020342032303231000D0A00006C
:1057C0000600525053B4F4A1EC5700100800525098
:1057D000920000005541525420737464696E0000B9
:1057E00055415254207374646F757400554152547E
:1057F00020737464696E202F207374646F75740055
:10580000B4020010A80200109C020010685700109B
:10581000900200107457001080570010C0570010FD
:04582000CC57001051
:1058240010B50368002B1AD001230168EFF310842C
:1058340072B60A68002AFCD0BFF35F8F0422825636
:10584400002A12DB0268BFF35F8F0021116084F32A
:105854001088002B00D020BF002BE6D110BD064BD2
:10586400064A1521064800F05BF8D0231B061B6886
:1058740003710023E6E7C046A44E0010804E0010DA
:10588400B84E001010B50268EFF3108472B61368B6
:10589400002BFCD0BFF35F8F0423C356002B0CDB1B
:1058A400002910D00B6000210368BFF35F8F002232
:1058B4001A6084F31088080010BDD0231B061B68EF
:1058C40003710121F0E70021EEE7000010B5026842
:1058D400EFF3108172B61368002BFCD0BFF35F8F17
:1058E4000423C356002B0ADBFF23037140BF036864
:1058F400BFF35F8F00221A6081F3108810BD034B41
:10590400034A4B21034800F00BF8C046F04E001048
:10591400984E0010B84E00107047C04600000000BA
:1059240001B40248844601BC604700BF4116001020
:105934001000000000000000000001000000000052
:105944000000000000000200000000000000000051
:105954000000030000000000000000000000FF0041
:105964000000000000B5486801318E4600477046CB
:1059740009380149884700BDFD1C001000000000E3
:10598400503300004C330000543300005233000005
:105994004D5300004D4300005334000043340000D5
:1059A4007940001000000000E140001000000000F9
:1059B4000001000000000000600200200000000060
:1059C400000000004C050020B40500201C06002047
:1059D40000000000000000000000000000000000C3
:1059E40000000000000000000000000000000000B3
:1059F40000000000000000000000000000000000A3
:105A04000000000000000000000000000000000092
:105A14000000000000000000000000000000000082
:105A24000000000000000000000000000000000072
:105A34000000000000000000000000000000000062
:105A44000000000000000000000000000000000052
:105A54000000000000000000000000000000000042
:105A64000000000000000000010000000000000031
:105A74000E33CDAB34126DE6ECDE05000B000000F6
:105A84000000000000000000000000000000000012
:105A94000000000000000000000000000000000002
:105AA40000000000000000000000000000000000F2
:105AB40000000000000000000000000000000000E2
:105DE4000000000000000000FFFFFFFF00000200B1
